:020000040800F2
:10000000505D00207D020008C93F0008C53C000883
:10001000C53F0008411D0008954A00080000000087
:100020000000000000000000000000004140000847
:10003000C920000800000000D13F0008654000080A
:10004000970200089702000897020008970200082C
:10005000970200089702000897020008970200081C
:10006000970200089702000897020008970200080C
:1000700097020008970200089702000897020008FC
:1000800097020008970200089702000897020008EC
:1000900097020008970200089702000897020008DC
:1000A00097020008494100089702000897020008DB
:1000B00055410008970200089702000897020008BF
:1000C00097020008970200089702000897020008AC
:1000D000970200089702000897020008970200089C
:1000E000970200089702000897020008970200088C
:1000F000970200089702000897020008970200087C
:10010000970200089702000897020008970200086B
:10011000970200089702000897020008970200085B
:10012000970200089702000897020008970200084B
:10013000970200089702000897020008970200083B
:10014000970200089702000897020008970200082B
:10015000970200089702000897020008970200081B
:10016000970200089702000897020008970200080B
:10017000970200089702000897020008000000009C
:1001800097020008970200089702000897020008EB
:1001900097020008970200089702000897020008DB
:1001A00097020008970200089702000800F002F882
:1001B00000F055F80AA090E8000C82448344AAF1AC
:1001C0000107DA4501D100F04AF8AFF2090EBAE8AA
:1001D0000F0013F0010F18BFFB1A43F0010318477B
:1001E000E0A1000000A20000103A24BF78C878C146
:1001F000FAD8520724BF30C830C144BF04680C602D
:10020000704700000023002400250026103A28BF74
:1002100078C1FBD8520728BF30C148BF0B60704778
:10022000662909F0A782642900F0E080752900F0B2
:10023000DD80002070471FB509F087FA00F0E4FF69
:1002400004000020002109F007F8401C6060002035
:10025000002108F0EBFFE0601FBD10B510BD01F0FC
:10026000ADFA1146FFF7E7FF04F016FD01F00AFDB5
:1002700003B4FFF7F2FF03BC01F05AFD09488047C1
:1002800009480047FEE7FEE7FEE7FEE7FEE7FEE778
:10029000FEE7FEE7FEE7FEE704480549054A064B90
:1002A0007047000035410008AD010008505700209C
:1002B000505D0020505900205059002053EA020C94
:1002C00000F069802DE9F04B4FF00006002B1FBFB6
:1002D000B3FA83F503FA05F424FA05F65E4012BF7B
:1002E0001643B2FA82F502FA05F4C5F120051EBFE5
:1002F00022FA05FC44EA0C04203556EA044C4FEA85
:10030000144418BF641C4FF000084FF000099042DD
:1003100071EB030C39D3002919BFB1FA81F701FA47
:1003200007F6B0FA80F700FA07F6C7F120071EBFFC
:1003300020FA07FC46EA0C062037B6FBF4FCA7EBD4
:100340000507103F07F01F0BCBF120062CFA06F62D
:100350000CFA0BFB44BFB3460026202FA4BF5E4619
:100360004FF0000B5BEA060C08BF4FF0010B19EBD6
:100370000B0948EB0608ABFB027C06FB02CC0BFB2F
:1003800003CCC01B71EB0C01C1E70B460246414692
:100390004846BDE8F08B13B5084318BF4FF0FF3057
:1003A0000146AFF30080BDE81C4070470FB41CB598
:1003B0000C0007AA009007D04142A14202D320447A
:1003C000401E01E04FF0FF30074B7B44694601902F
:1003D000069800F01AFC0020002C01D0009908704B
:1003E0001CBC5DF814FB0000630800002DE9F0411F
:1003F0000646002410687529314616A510D0AFF3C3
:100400000080002802DA404213A507E031688A071D
:1004100001D512A502E0490704D511A5012401E088
:10042000AFF3008000210A2206F1240709E0B0FBA7
:10043000F2FCB0FBF2F302FB1C003030785418469B
:10044000491C0028F3D123462A463046BDE8F04136
:1004500000F06FB9000000002D0000002B0000002C
:10046000200000002DE9F0474FF0000A89460446BD
:10047000C0F820A02046E1688847002876D02528CB
:1004800006D0D4E901219047206A401C2062F1E7A0
:10049000E168204600268847C4F81CA005460027CE
:1004A000C4F818A02A2D09D0284608F070FE38B3E9
:1004B00004EB8708303DC8F8185019E059F8041BC0
:1004C000204604EB87029161E1688847012F0546C9
:1004D00018D1E069002820DA26F020061DE0D8F8BF
:1004E000180000EB800005EB40003038C8F8180019
:1004F0002046E1688847054608F049FE0028EED10D
:10050000012F0AD02E2D08D12046E16888477F1C94
:100510000546022F46F02006C4DBA069002803DA56
:10052000404246F00106A061F00701D026F0100617
:100530006C2D0AD0682D08D04C2D39D06A2D35D0BD
:10054000742D35D07A2D33D016E0E1682F46204641
:100550008847B84205460AD16C2F27D04FF48060F7
:10056000E168064320468847054605E027E06C2FF2
:100570001AD04FF4807006430DB3A5F1410019283D
:1005800002D8203546F400664A46294620462660B1
:100590004E46FFF745FE80B101280BD0F61D26F030
:1005A000070000F1080965E74020E4E78020D7E76D
:1005B0000020D5E706F104095CE7284661E7206AD8
:1005C000BDE8F0870FB400B58DB010A90990009177
:1005D0000B904FF0FF300A9000200C9006487844B2
:1005E0000690064878446A4607900F9909A800F0DB
:1005F000A9FD0DB05DF814FB830B00009B0B000000
:10060000032A40F2308010F0030C00F0158011F83E
:10061000013BBCF1020F624498BF11F801CB00F816
:10062000013B38BF11F8013BA2F1040298BF00F86A
:1006300001CB38BF00F8013B11F0030300F0B28595
:10064000083AC0F0088051F8043B083A51F804CB4E
:10065000A0E80810F5E7121D5CBF51F8043B40F814
:10066000043BAFF30080D20724BF11F8013B11F81F
:1006700001CB48BF11F8012B24BF00F8013B00F863
:1006800001CB48BF00F8012B704702F0FF0343EA9B
:10069000032242EA024200F024B84FF0000204298B
:1006A000C0F0128010F0030C00F01B80CCF1040CA1
:1006B000BCF1020F18BF00F8012BA8BF20F8022BD5
:1006C000A1EB0C0100F00DB85FEAC17C24BF00F87B
:1006D000012B00F8012B48BF00F8012B70474FF0A9
:1006E000000200B5134694469646203922BFA0E882
:1006F0000C50A0E80C50B1F12001BFF4F7AF09078E
:1007000028BFA0E80C5048BF0CC05DF804EB89007E
:1007100028BF40F8042B08BF704748BF20F8022BC1
:1007200011F0804F18BF00F8012B704770477047D9
:1007300070472DE9F0470D4699469246044600F170
:1007400024080168880604D5E06921F010012160C1
:1007500000E00120A84201DD471B00E00027A1695D
:100760007A1902EB0900081AA0612078C00602D4A9
:100770002046AFF30080002608E0D4E901211AF8F2
:1007800006009047206A401C761C20624E45F4DB30
:100790002078C0060AD52046AFF3008006E0D4E9F1
:1007A000012130209047206A401C2062381EA7F1AA
:1007B0000107F4DC07E0D4E9012118F805009047AF
:1007C000206A401C2062281EA5F10105F3DC2046AA
:1007D000AFF300802078000602D50220BDE8F08744
:1007E0000120FBE72DE9FF4F0C461E464FF0FF3777
:1007F0008BB0D2E90001DDF860800A908A46C1F32F
:100800000A5505B93D46002108464FF00000BAF1EF
:10081000000F00F4400005DA00EB80004FF44001C7
:1008200001EA50004FEA9059B9F1010F00DDB946D5
:100830000A9850EA4A000ED044F61050A5F2FF354F
:1008400045432F14B8F1000F1ED07542291E1EDD3E
:10085000C9F100021CE0B8F1010F4FF0000001D017
:10086000302103E0F24305E02154401CB042FBDBA1
:1008700030460022002121540B99C1F80880C1E9BB
:1008800000200FB0BDE8F08FBD1B6D1CDEE74A46AF
:1008900000DA694206A800F01BFF06AB93E80700E8
:1008A00003AB83E8070050460A9907F00BFF8DE879
:1008B0000700A0F500501F3800900398002D0ADDB6
:1008C00042F21F014A460844002303A903906846E8
:1008D00008F0B6F909E0A0F500504A461F38002399
:1008E00003A90390684608F0D5F98DE807000004D5
:1008F000000C03D04FF0FF30410800E01046B8F183
:10090000000F03D00022009215461EE0751E05D48C
:1009100000F095FC303262556D1EF9D5B3460122C8
:10092000084302D000227F1C04E02078302801D147
:1009300000227F1E002A099784D01DE0112D07DABE
:1009400000F07DFC303262556D1C50EA0102F5D199
:10095000084302D00098C8B10EE00021681E05E0EF
:10096000235C625C63542254401E491C8142F7DBC5
:10097000AB46A81B401E0990002004F80B000B9802
:10098000099AC0F80880C0E9002B7AE711264FF0D9
:10099000000857E72DE9F04F88460446D21D22F0A3
:1009A000070191B0D1E90001CDE90A0108F0BEFAD2
:1009B00002460B98C00F01D02D2007E02068810768
:1009C00001D52B2002E0202101EAC000032A099072
:1009D00001D0072A05DB03464146204600F07EFC95
:1009E0000BE12078800601D5E06900E00620B8F12F
:1009F000650F814606D0B8F1660F18D0B8F1670FC1
:100A000070D131E00020B9F1110F009001DB11230A
:100A100001E009F101030AAA01A90CA8FFF7E2FE0F
:100A2000DDE90C70002609F10105834647E001204D
:100A30004B4600904FF000470AAA01A90CA8FFF707
:100A4000D1FEDDE90DB00C995D46002610B909F123
:100A500001000D18B9EB050003D4C0F1FF3609F110
:100A60000105A5EB09002BE0B9F1010F01DA4FF008
:100A700001090020B9F1110F0090484601DD112352
:100A800000E003460AAA01A90CA8FFF7ABFEDDE9C6
:100A90000C704D4600268346207800070AD4AB45EB
:100AA00000DA5D4601A8012D04DD411911F8011C91
:100AB000302907D04F4502DA17F1040F04DA01207C
:100AC00082460FE06D1EEEE7002F02DCED1B3E4478
:100AD00003E0781CA84200DD7D1CB81B00F1010A70
:100AE0004FF000472078000703D4AA4501DB4FF000
:100AF000FF3A0021B7F1004F0DF143088DF8431084
:100B000024D002202B23002F01DA7F422D230A213B
:100B1000021EA0F1010000DC5FB197FBF1FC97FB26
:100B2000F1F201FB1C7C17460CF1300C08F801CDEA
:100B3000EEE7A8F1010003702188090501D54521E0
:100B400000E06521A0F1010800F8011C09980FA937
:100B5000A1EB0807FF1D00B10120411901EBEA706C
:100B6000A1693844081A401EA0612078C00602D44A
:100B70002046AFF30080099828B1D4E901219047BD
:100B8000206A401C20622078C00622D52046AFF3A0
:100B900000801EE0002E04DBB34502DD01A8805D6D
:100BA00000E03020D4E901219047206A401C2062F7
:100BB000761CAAF101005FEA000A0AD100F024FBCA
:100BC000C0680168405CD4E901219047206A401C5C
:100BD0002062281EA5F10105DCDC07E0D4E9012133
:100BE00018F8010B9047206A401C2062381EA7F1BC
:100BF0000107F3DC2046AFF30080032011B041E68B
:100C000001694A1C02610878704700B58FB0CDE9D0
:100C100001310021059105497944CDE903101146C0
:100C20006846FFF71FFC0FB000BD0000E5FFFFFFA7
:100C3000D1E900239A4202D2531C0B601070704716
:100C40002DE9FF4F06468BB00878FF2806D0491CD7
:100C50002D2805D000244FF0000908E000200CE00A
:100C60000124F8E709EB8903491C00EB43090878E4
:100C7000FF28F7D114B1C9F1000081461078002592
:100C80002C46AA4629462D2801D02B2804D1521CD7
:100C90002D2813D0002082468B461078FF280FD0D5
:100CA0004FF0000C0A21521CA5FB017804FB0181C6
:100CB00005FB0C11C5194BEB0104EEE70120EAE737
:100CC000002108464FF00000BAF1000F02D000EBFF
:100CD00080004008C0F38157012F01DD4FF0FF373E
:100CE0000E9955EA040009EB01080BD04FF00209F8
:100CF00018F5FA7F16DA4FEACA70002F706008DD27
:100D0000012007E04FEACA70C6E900B00FB0BDE8A5
:100D1000F08F0020306000F07BFAC0F800901821BE
:100D2000084616E0B8F5FA7F18DD002F02DAF7481A
:100D3000784401E0F6487844D0E90010C6E9001094
:100D400040EACA70706000F063FAC0F800901421A5
:100D500008460FB0BDE8F04F08F009BD0021084675
:100D60004FF00000B8F10001099002DAC7F100026B
:100D700000E03A4601DAC8F1000106A800F0A8FC3C
:100D800006AB93E8070003AB83E8070044F23E009C
:100D90005BEA04010090584604D144F21E012C463F
:100DA0005D460091210C0904014306D100992404F9
:100DB00044EA15442D041039009104F07F410143A9
:100DC00006D10099240244EA15642D0208390091E5
:100DD00004F07041014306D10099240144EA1574DE
:100DE0002D01091F009104F04041014306D10099F3
:100DF000A40044EA9574AD00891E009104F00041FE
:100E0000084304D100986D196441401E00904FF0D2
:100E100001033A466846B8F1000FCDE9014503A940
:100E200002DD07F04CFF01E007F01FFFBAF1000FF1
:100E300004460D4601D084F00044002108464FF0DE
:100E40000000099940F2FF77484010F00C0F07D1DD
:100E500024F00040284303D0C4F30A50B84212D112
:100E600000F0D6F9C0F80090C4F30A50B8420AD195
:100E7000A8487844D0E90010C6E9001004F0004109
:100E80000843706042E7C6E900543FE72DE9FF4F91
:100E90001F464FF0000A4FF0FF38454691B0D7E9A2
:100EA0000146CDF83CA000F0AFF9C0680168405C95
:100EB0001090B96912986D1C8847396A8146884735
:100EC0000028F6D1B9F1FF3F0AD0002E24F4D064F7
:100ED00011DDB9F12B0F08D0B9F12D0F0BD102E0C4
:100EE000404615B013E744F48064B96912986D1C4C
:100EF0008847761E8146600504A901D52D2000E0B3
:100F00002B20002E01F1010B0DF130088DF810009F
:100F10003FDDB9F1690F08D0B9F1490F05D0B9F13A
:100F20006E0F02D0B9F14E0F1CD13B4601A80095BF
:100F300080E85002DDE912126FF0020008F080FC38
:100F4000C11CCED10EE0B96912986D1C884781464C
:100F50001398761E44F4007405600F98401C002E10
:100F60000F9016DDB9F1300FEDD0B9F1780F02D046
:100F7000B9F1580F0DD10F9801280AD13B46CDE9A0
:100F80000054DDE91212001F029608F057FCC11C44
:100F9000A7D1109989453ED144F0800406E0139909
:100FA000681CAAF1010A44F400740860B9696D1C58
:100FB0001298761E884730288146F0D02BE0109991
:100FC000894505D1200603D4761E44F0800418E03C
:100FD000484608F0DCF808B3761E0DF1230293456D
:100FE000A9F1300044F4007406D20BF8010B20067E
:100FF00007D5AAF1010003E0200602D40AF101009E
:101000008246A00502D51399681C0860B969129838
:101010006D1C88478146002ED1DC53E0002E51DD47
:10102000B9F1650F02D0B9F1450F4BD1A00549D5F3
:10103000B9696D1C1298761E24F440748847002EFE
:1010400081460CDD2B2804D0B9F12D0F07D144F4D3
:101050008074B96912986D1C8847761E8146E00538
:1010600001D52D2100E02B2108F8011BCDF80080CF
:1010700021E0761E0DF13901884544F400740CD24C
:10108000A9F1300010F0FF0088F8000002D10099AB
:10109000884509D908F1010806E0E00501D51E4898
:1010A00001E042F20F708246B96912986D1C8847C0
:1010B000814613980560002E04DD484608F067F865
:1010C0000028D6D1F96912988847FF2053468BF83B
:1010D000000088F8000000200A900B9004AA0CA9D8
:1010E0000AA8FFF7ADFDA00502D46FF00100F8E6F5
:1010F00014F0240F12D0E0071CD13868DDE90A1281
:10110000031D3B600068C0E9001213E0B4960000C4
:10111000A69600006A950000F1D8FFFF0AA968466C
:1011200008F022F8E00705D13868009A011D3960FF
:10113000006802602846D4E6026811441378016012
:1011400018467047D1600549794451610449794492
:10115000116200211161114600F000B9EDFFFFFF9F
:1011600077010000426842B1016811F8013B23B1E8
:10117000521EC0E90012184670470121C160881E46
:10118000704742685AB1C368016843B983688B42AB
:1011900005D0491E521CC0E90012002070474FF0D4
:1011A000FF30704710B5203AC0F00B80B1E81850FE
:1011B000A0E81850B1E81850A0E81850203ABFF441
:1011C000F5AF5FEA027C24BFB1E81850A0E81850E0
:1011D00044BF18C918C0BDE810405FEA827C24BF34
:1011E00051F8043B40F8043B08BF7047D20728BFC2
:1011F00031F8023B48BF11F8012B28BF20F8023B11
:1012000048BF00F8012B70470048704730000020AD
:101210000048704710000020B2F120030AD5C2F147
:10122000200301FA02F120FA03F341EA030100FA74
:1012300002F0704700FA03F14FF00000704730B53C
:10124000B0F10A0271F100034FEA900E4EEA817E7E
:10125000B0EB0E0061EB91014FEA101E4EEA017EE9
:1012600010EB0E0041EB11114FEA102E4EEA016E09
:1012700010EB0E0041EB11214FEA104E4EEA014EE9
:1012800010EB0E0041EB1141401841F100014FEA13
:10129000D00040EA41704FEAD1014FEA810444EAAC
:1012A000907410EB800544EB01046D1944EB0404C9
:1012B000521BA3414FF0000348BF0A3200D530BD96
:1012C000401C41F1000130BD10B5044600F09CFA0D
:1012D0000068005D00F0010010BD00002DE9F04144
:1012E0001F46044603260168072A01F4006004DB58
:1012F00008B116A505E016A503E008B115A500E0A4
:1013000015A521F010002060A069C01EA0610FB1DA
:10131000401EA0612046AFF300804FB1D4E9012107
:1013200038469047206A401C2062C01C206206E0BC
:10133000206AFAE7D4E9012115F8010B9047761EDF
:10134000F8D22046AFF30080BDE8F0814E414E0058
:101350006E616E00494E4600696E66002DE9F34FDE
:101360004FF0000A0C4656468DB001200C9001F15A
:101370000C000B9062690B9801219047051E2DD03F
:10138000252D2CD0216A8847C0B162690B980121B4
:101390009047216A88470028F7D16269411E0B985F
:1013A000904700E0761CA1690D988847216A88471C
:1013B0000028F7D1E1690D988847DBE7A1690D980E
:1013C0008847A842074601D1761CD3E7E1690D980A
:1013D00088477F1C02D1BAF1000F6FD06BE16269C0
:1013E0000B9800273D46394690472A2804D1626968
:1013F0000B98012190470125DFF8D08262690B9894
:1014000001219047A0F130010A290AD24745E5DCC5
:1014100007EB870100EB4107303FDFD445F01005B3
:10142000ECE7E90601D46FF000476C280AD04C289D
:1014300014D0682815D06A280DD074281CD07A28BA
:101440001AD01DE062690B98012190476C2802D0E8
:1014500045F0040514E045F002050DE045F02005D7
:101460000AE062690B9801219047682802D045F094
:10147000080505E045F4006562690B980121904775
:10148000C4E9015765283DD019DC58287AD00CDC16
:10149000452837D004DC252826D041289ED131E0CC
:1014A00046282FD0472899D12CE05B2877D0612897
:1014B00028D063287CD0642823D15AE0F6E06F2836
:1014C00048D008DC66281DD067281BD0692821D0A9
:1014D0006E2816D127E0702845D0732868D075286B
:1014E00047D078280DD14DE0A1690D98884725286F
:1014F00005463FF469AFE1690D9888476D1C3FF4DC
:101500006AAFD8E00D9923466A466FF0010008F0F3
:1015100093F9C5E045F0400023464FF000026060BB
:10152000A80736D43EE0E8077FF447AF2068011DE6
:1015300021600068290501D506701BE7290701D540
:10154000068017E7A90703D5F117C0E9006111E785
:1015500006600FE745F0400023464FF00802606048
:10156000A80716D41EE040F60E0125EA01006060CF
:1015700016E045F0400023464FF00A026060A807DD
:1015800007D40FE045F040006060A80708D5234667
:1015900010220D996FF00100AFF3008080E007E0AA
:1015A000102223460D996FF00100AFF3008077E021
:1015B0004FF0000963284F46C8464B46CB4602D041
:1015C0005B2806D038E0E80601D40120A06001279E
:1015D00032E06269D4F80CB00B98012190475E2884
:1015E00007D14FF0010949466269D4F80CB00B9855
:1015F0009047216939B900210A4603AB43F82120FD
:10160000491C0829FADBD8B3216949B308F101085C
:1016100062690B98012190475D28F4D1B9F1000F60
:1016200009D0002003A951F82020D24341F82020FE
:10163000401C0828F7DB03AB2069002820794FEA1B
:1016400040701ED05B462246CDF80080CDE9019760
:101650000D9900286FF0010020DAAFF300801FE041
:10166000C11703AA00EBD1614B1121F01F0102EB5E
:101670008302411A13680120884003431360C7E7BF
:1016800019E00D99224600286FF00100009702DA58
:10169000AFF3008004E0AFF3008001E0AFF300801F
:1016A00000280ADA401C06D10C9820B14FF0FF3018
:1016B0000FB0BDE8F08F5046FAE7E90701D10AF113
:1016C000010A064400200C9054E60000CCCCCC0C5F
:1016D0002DE9F047814616468AB0354878440DC852
:1016E0008DE80D0032487844801C03AC0DC884E8B6
:1016F0000D0041F69B300844372190FBF1F290FB3E
:10170000F1F5A5F1800501FB12041B3C02D56442F2
:10171000012000E00020DFF898A080460027FA446E
:10172000AAF1BE0A0EE0E0070AD03246684607EB8F
:10173000470101230AEB810107F0ACFA8DE80700AD
:1017400064107F1C002CEED1194F7F44AE3F19E08E
:10175000E80715D007EB04100DF1180A90E80E0009
:101760008AE80E00C068F04201D19819089032460C
:10177000012306A903A807F08DFA03AB83E807004D
:101780006D10641C002DE3D14FF001033246694611
:10179000B8F1000F03A802D007F052FA01E007F0F9
:1017A00079FAC9E90001C9F808200AB0BDE8F08754
:1017B0001082000000487047100000207546FFF7B7
:1017C000F9FFAE4605006946534620F007008546FE
:1017D00018B020B5FEF760FDBDE820404FF00006D0
:1017E0004FF000074FF000084FF0000BAC46ACE89C
:1017F000C009ACE8C009ACE8C009ACE8C00921F0F8
:1018000007018D467047000010B5FFF7FDFC001D75
:1018100010BD00BF457A000010B5FFF7F9FC006865
:1018200010BD10B50446FFF7F3FC046010BD0000C6
:101830002DE9FF4F1F464FF03C0987B04FF00042A3
:10184000DDE9141001F10108DDF858A002EA40506A
:101850000390002005908346054604460490B9692C
:10186000461E08988847AAF1010A0290BAF1000FB3
:101870003BDD02982E2815D0102100F04BFA0028ED
:101880002EDB4FF0010B0599014317D0B9F1000F82
:101890000BDB4A46C117FFF7BFFC05430C43A9F118
:1018A000040905E0012004900BE008B145F00105B2
:1018B00001200590049820B9361D02E0049800B17B
:1018C000361FB969089808F101088847BBF1000F75
:1018D000AAF1010A0290C9D00999C1F80080C5E7B0
:1018E0000298702808D0502806D0F96908988847CF
:1018F000BBF1000F14D04FE0002002900120BBF19B
:10190000000F049009D0B969089808F101088847C8
:10191000AAF10109B9F1000F07DCF96908988847B5
:101920006FF001000BB0BDE8F08F2B2804D02D28FC
:101930000CD14FF0FF300490B969089808F1010804
:101940008847A9F10109B9F1000FE6DD411CE4D097
:101950000A2100F0DFF90028DFDB029908F1010815
:1019600001EB810100EB41000290B96908988847BA
:101970000A2100F0CFF9099AA9F10109B9F1000F84
:10198000C2F8008001DD0028E7DAF9690898884785
:101990000499029800FB016655EA040004D004F0A3
:1019A0004041090002D006E0039898E0A40044EA10
:1019B0009574AD00B61E04F00041080002D16D1907
:1019C0006441761E159810F0240F03D04FF00B09D8
:1019D0005C4803E04FF028096FF07D0082465645D1
:1019E00007DAAAEB06018944B9F1410F01DD4FF096
:1019F000410901200021A9F10102FFF70DFC024677
:101A000028400B462140084301D0012100E000217D
:101A1000501E029143F1FF3128402140084301D07C
:101A2000012000E000200299834651EA0B014FD0CB
:101A3000002108464FF00000039900F4400039B13E
:101A400000EB80004FF4400100EBD07001EA600031
:101A50008015012802DD4FF0FF3000E013D0401C5C
:101A600036D0029860B3BBF1000F0CD14A4601207A
:101A70000021FFF7D1FB28402140084301D001207D
:101A800000E00020E0B101204A460021FFF7C4FB3E
:101A9000034640190A4661412D1A8C4111D3B9F110
:101AA000400F09DD159810F0240F02D0AAF134067A
:101AB00003E0AAF1170600E0761C00254FF0004471
:101AC00006E05B1E42F1FF3220EA030521EA020430
:101AD000CAF10100B04206DA1B490398084301909D
:101AE000002000900EE0039AC4F3D321E80A0A43D1
:101AF000164940EA44500A433146CDE9000268469F
:101B000007F03BFB159810F0240F0BD01598C00779
:101B100015D13868DDE90012031D3B600068C0E99B
:101B200000120CE002A8694607F01EFB1598C007DA
:101B300005D13868029A011D39600068026040468C
:101B4000F0E6000002FCFFFF0000F07F0000F03F25
:101B50002DE9FF4F92461D4685B04FF00041DDE96B
:101B6000124BDDE914727F1E01EA4B50414940F0EF
:101B7000FF4940EA0108002122F020004928049191
:101B800002D04E2828D04CE03BA0012607C88DE8A3
:101B90000700A9690698641C88477F1E014606D481
:101BA0001DF8060018B121F0200181420BD0E9692F
:101BB00006988847032E34D0082E32D06FF00100EB
:101BC00009B0BDE8F08F761C032E01D0082EE0D1BD
:101BD000601CCAF80000DCE7A9690698641C884705
:101BE0007F1E2AD420F02000412826D1A96906981A
:101BF000641C88477F1E20D420F020004E281CD172
:101C0000A9690698641C88477F1E48F4002849F497
:101C10008009CAF8004001D4282806D0E96906984E
:101C200088475FEACB7012D022E0A9690698641C4D
:101C300088477F1E01D4002803DAE969069888479F
:101C4000BCE72928F1D1641CCAF80040E9E71BF081
:101C5000240F07D028680499031D2B600068C0E991
:101C6000001805E02868021D2A600068C0F800908E
:101C70002046A5E70000F07F494E46494E49545999
:101C80000000000010B50446AFF300802046BDE818
:101C90001040FEF7EDBA000030B44FF0013C50F8B0
:101CA000042B51F8043BCCFA52F4D51A20D1FCB9DC
:101CB00050F8042B51F8043BCCFA52F4D51A17D142
:101CC000B4B950F8042B51F8043BCCFA52F4D51AAD
:101CD0000ED16CB950F8042B51F8043BCCFA52F4F5
:101CE000D51A05D1002CDAD030BC4FF00000704777
:101CF00029BAB1FA81F111F01801D1F12000844024
:101D0000F2D1CA40CB4012F0FF0213F0FF0330BC07
:101D1000D01A70473A2800D2303820F02002412AE9
:101D200001D3A2F13700884201D34FF0FF30704752
:101D300001491820ABBEFEE72600020070470000F4
:101D4000FEE700002DE9F04F87B00C46054602F093
:101D5000A3FE002800F0AE8141F2004640F6601A72
:101D6000CDE901540024C4F20206C2F2000A41F295
:101D7000111540F24448002712E000BF016A2942D1
:101D800032D030464FF4805100F052FC002807F169
:101D9000010718BF0120082F40EA4B0B2ED000BFCF
:101DA00030464FF4805100F043FC0028F8D100BFCA
:101DB00030464FF4805100F03BFC0028F8D0DAF8B0
:101DC00000004462016841F001010160416A272975
:101DD000D4D8416A2729D1D8416A2729CED8416A67
:101DE0002829F3D3CAE700BF016A11EA080FC8D156
:101DF000016821F001010160C3E700BF4FF0000955
:101E000041F2111540F24448002411E0016A2942D0
:101E100034D030464FF4805100F00AFC002804F121
:101E2000010418BF0120082C40EA470730D000BF4A
:101E300030464FF4805100F0FBFB0028F8D100BF82
:101E400030464FF4805100F0F3FB0028F8D0DAF868
:101E50000000C0F82490016841F00101016000BF5A
:101E6000416A2729D2D8416A2729CFD8416A272930
:101E7000CCD8416A2829F3D3C8E700BF016A11EA28
:101E8000080FC6D1016821F001010160C1E700BF60
:101E90004FF0000841F211144FF0000912E000BFAA
:101EA000016A214234D030464FF4805100F0C0FB2B
:101EB000002809F1010918BF0120B9F1080F40EA13
:101EC00045052FD030464FF4805100F0B1FB00287B
:101ED000F8D100BF30464FF4805100F0A9FB002834
:101EE000F8D0DAF80000C0F82480016841F0010160
:101EF000016000BF416A2729D2D8416A2729CFD87B
:101F0000416A2729CCD8416A2829F3D3C8E700BF02
:101F1000016A40F244421142C5D1016821F0010139
:101F20000160C0E741F211194FF0000814E000BF52
:101F3000016A11EA090F35D030464FF4805100F0A4
:101F400077FB002808F1010818BF0120B8F1080F3D
:101F500040EA440430D000BF30464FF4805100F0D6
:101F600067FB0028F8D100BF30464FF4805100F0E5
:101F70005FFB0028F8D0DAF8000000214162016818
:101F800041F00101016000BF416A2729D0D8416AB0
:101F90002729CDD8416A2729CAD8416A2829F3D3ED
:101FA000C6E700BF016A40F244421142C4D1016851
:101FB00021F001010160BFE74FF0000814E000BF0D
:101FC000016A41F21112114234D030464FF480516F
:101FD00000F02EFB002808F1010818BF0120B8F11D
:101FE000080F40EA49092FD030464FF4805100F0E5
:101FF0001FFB0028F8D100BF30464FF4805100F09D
:1020000017FB0028F8D0DAF80000002141620168CF
:1020100041F00101016000BF416A2729D0D8416A1F
:102020002729CDD8416A2729CAD8416A2829F3D35C
:10203000C6E700BF016A40F244421142C5D10168BF
:1020400021F001010160C0E7FFB257FA8BF050FAAE
:1020500085F050FA84F05FFA89F1884225D149F67B
:102060002019C0F600090DF114085FFA8BF3404601
:1020700008214A46EEB2E4B20097FEF797F903ADA5
:10208000284608214A4633460094FEF78FF949F660
:102090002616C0F60006019A40463146FEF792FA2F
:1020A000029A28463146FEF78DFA002007B0BDE8B7
:1020B000F08F00BF0020C4F2C62028602060FF20FF
:1020C00007B0BDE8F08F000070470000EFF310800C
:1020D00072B600BFFEE70000B0B5044600F0BCFADF
:1020E000054640F20000C2F200000078611C18BFF3
:1020F000044400BF00F0B0FA401BA042FAD3B0BDC8
:1021000070B582B0002843D00446D0F8840028B9C6
:102110002320C4F88400204600F022F9002001901A
:1021200043F64400C4F2020001684FF4805641F4C3
:1021300080410160006800F480400190019843F6FE
:102140000400C4F20100016821F40001016021686B
:10215000A26803681A4302600068885940F00100D1
:10216000885100F079FA054620688159C90713D0D3
:1021700000F072FA401BB0F5FA7FF5D90120E02299
:102180000421C4F88810C4F8842002B070BD00BFD8
:10219000012002B070BD00BF016848F20F12CFF6F7
:1021A0002072114001F59C41016005680120FFF794
:1021B00093FF20684FF641720560816911408031BC
:1021C000816185690120FFF787FF206841F21801CE
:1021D0008561425843F62373CFF6DE031A4042F07E
:1021E000087242F00402425045580120FFF774FF84
:1021F000206800F580518D6142F280014FF48055D6
:10220000C0F2C121415146590120FFF765FF206806
:10221000E26800214651116051609160D160A26175
:10222000136800F5805C43F48013136002F1280307
:10223000D360166844F2F45546F440061660916285
:10224000D16211635163E361936A43F48013936233
:1022500002F150035363966A46F440069662116594
:1022600051659165D1652362136D43F48013136545
:1022700002F17803D365166D46F440061665916742
:10228000D167C2F88010C2F884106362936F43F480
:1022900080139367C2F88420936F43F440039367DD
:1022A000A162CCF8102022694FF000431160516008
:1022B0009160D160C2E9081113605560566826F03C
:1022C0000046566002F12806A264D6609162D1628F
:1022D00011635163C2E912119362D562D06A20F092
:1022E0000040D06202F15000E66450631165516510
:1022F0009165D165C2E91C1113655565566D26F0CF
:1023000000465665206502F17800D0659167D16777
:10231000C2F88010C2F88410C2E926119367D5670D
:10232000D36F23F00043D3676065C2F88420216631
:10233000C4E91A11C4E91611CCF80C20606848F2FF
:1023400040038288C4F202031A60006810225860B9
:102350000020C4F88810C4F8842002B070BD0000CA
:102360002DE9F04385B0006848F20001C4F2020193
:10237000884203D005B0BDE8F08300BF002643F6D5
:1023800030000096C4F202000168002441F00071A0
:1023900001600168C4F2020401F00071009100992B
:1023A000009601686D4641F08061016001684FF060
:1023B000020801F0806100910099009601684FF0D9
:1023C000030941F00061016001680B2701F0006121
:1023D000009100990096016841F0040101600168D4
:1023E00001F00401009100990096016841F001019B
:1023F0000160016801F001010091009900960168F7
:1024000041F002010160016801F0020100910099B0
:102410000096016841F0400101600068294600F023
:102420004000009000983220009004F50060CDE953
:102430000186CDF80C90049700F026F88620CDE9AF
:10244000000820462946CDE90269049700F01CF8EF
:102450004FF40050CDE9000804F580602946CDE92D
:102460000269049700F010F84FF42050CDE90008FD
:1024700004F5C0502946CDE90269049700F004F83C
:1024800005B0BDE8F08300002DE9F04F82B000F107
:102490003E4242F2004502F1FF77C4F202050A22F1
:1024A00043F6004E4FEAB726A84208BF0922C4F2FD
:1024B000010E092E38BF4FEAB7220125002600275A
:1024C0004FF00008009208E008F101080437B8F165
:1024D000100F06F1020600F0A7800C6805FA08F953
:1024E00014EA090FF0D0D1F804B003220BF0030C6A
:1024F000ACF10104B240012C6FEA020A10D88268E4
:10250000CC6802EA0A02B440224382604268CBF3FC
:10251000001422EA090204FA08F42243426005E0AA
:10252000BCF1030F02D14FF0030C20E0C2688C68AD
:1025300002EA0A02B4402243BCF1020FC26016D183
:102540006FF0030202EA58020244D2F820C007F0FA
:102550001C050F230C69AB402CEA030304FA05F5B4
:102560002B431362D1F804B001250BF0030C026871
:102570000CFA06F302EA0A021A431BF4403F026017
:10258000A2D0002243F644030192C4F202031A6867
:102590004FF6084C42F480421A601A68CFF6FF7C6E
:1025A00002F480420192019A28F00302724452F828
:1025B0000C3007F00C050F24AC40A343009C04FA38
:1025C00005F52B4342F80C30DEF808204B6842EA50
:1025D000090543F60C4CDC0258BF22EA0905CEF887
:1025E0000850C4F2010CDCF800209C0242EA090504
:1025F00058BF22EA0905CCF80050DEF804209C03FD
:1026000042EA090558BF22EA0905CEF80450DEF86F
:102610000020DB0342EA090558BF22EA0905CEF88B
:102620000050012550E700BF02B0BDE8F08F000068
:102630000069084018BF012070470000426902EAA3
:102640000103914341EA034181617047002A08BFB9
:10265000090481617047000045F25400C2F2000095
:102660000068704790F83D20202A1CBF0220704768
:10267000242280F83D200268136823F001031360D0
:10268000536A23F010035362536A1943516211686D
:1026900041F001011160202180F83D1000207047B9
:1026A00090F83D20202A1CBF02207047242280F889
:1026B0003D20026889B2136823F001031360D2F849
:1026C00024C04FF6F07303EA0C03194351621168FA
:1026D00041F001011160202180F83D100020704779
:1026E00070B5B8B3044690F83D0028B9002084F8CE
:1026F0003C00204600F0ECFA242084F83D002068DD
:10270000016821F001010160016841F400410160AC
:10271000016821F40041016000F0B8FD48F28041F9
:10272000C0F21E0140F60013D4F804E088424FF0D6
:102730000001C0F23D0348F2A16C4FF0000238BF27
:1027400001219842C0F2010C38BF0122E64538BF92
:102750000A460AB1012070BD4DF68361C4F21B31F7
:10276000A0FB01122168950C4B684FF4967623F07C
:102770003F0343EA9243754344F6D3564B60C1F29C
:1027800062060B6AA5FB0656B50923F03F03E64532
:1027900038BF950C6A1C1A430A62CA6948F2A066DF
:1027A0004CF6FF73C0F20106B64522EA03020BD8CD
:1027B00001384FEA4E03B0FBF3F001306FF31F30E6
:1027C000042898BF04201EE0A368013863B11923D0
:1027D0000EFB03F3B0FBF3F001306FF31F3078B161
:1027E00000F5804008E000BF0EEB4E03B0FBF3F0B5
:1027F00001306FF31F3028B100F5004003E000BF47
:10280000012000E001201043C8610868D4E90723D3
:1028100020F0C000104318430860886848F2FF3277
:1028200004F10C0690434CCE18431043A569886010
:10283000C86820F0FF0030432843C860086840F0B3
:102840000100086000202021206484F83D102063EE
:1028500084F83E0070BD00002DE9F04381B01F46B2
:10286000164688460446FFF7F7FE94F83D102029E7
:1028700020D1054620688169890717D5FFF7ECFE4E
:10288000401B1928F6D900202021206384F83D1030
:1028900084F83E00216C022641F02001216484F876
:1028A0003C00304601B0BDE8F08300BF94F83C1016
:1028B000012905D10226304601B0BDE8F08300BFF2
:1028C000012184F83C100168C90703D1016841F077
:1028D00001010160016821F400610160212184F897
:1028E0003D10102184F83E10002121646662678546
:1028F000618D21850021CFF6FF71E162E16A11F55A
:10290000803F18BF012919D1016841F4807101602D
:102910004169DDF82090C90723D119F1010116D0D2
:10292000B9F1000F46D000BFFFF796FE401B4845A7
:1029300042D820684169C907F6D012E00829E3D0DF
:10294000216B1229E0D0E3E74169C90709D1416948
:10295000C90706D14169C90704BF41695FEAC1716E
:10296000F2D02169B1F5804F02D1FE2161E000BFB4
:10297000062101EAD811F03101614169090757D4F4
:10298000416919F1010201F480612FD0002946D17B
:10299000B9F1000F00F04281FFF75EFE401B484591
:1029A00000F23E8120684169090741D44169490527
:1029B000F2D534E0FFF750FE00202021206384F898
:1029C0003D1084F83E00216C012641F02001216475
:1029D000216884F83C000868C00544BF4FF40070CB
:1029E0002064304601B0BDE8F08300BFB9B9416949
:1029F00009071DD44169490511D44169090717D454
:102A0000416949050BD44169090711D44169490558
:102A100005D4416909070BD441694905E7D5016827
:102A200041F4007101606FF4806141610420F8E0BD
:102A3000FF2101EA08010161416989073AD441692E
:102A400019F1010201F4806112D051BBB9F1000FFC
:102A500000F0E080FFF700FE401B484500F2DC80FC
:102A600020684169890725D441694905F2D518E0F4
:102A7000B9B9416989071DD44169490511D4416932
:102A8000890717D4416949050BD44169890711D4D5
:102A90004169490505D4416989070BD44169490554
:102AA000E7D5016841F4007101606FF48061416114
:102AB0000420B6E0002600964169009181690091EA
:102AC0000099218D002900F0958009F10108014647
:102AD00051F8142F120635D4B8F1000F16D0B9F101
:102AE000000F00F0AF8000BF0868400500F1B28021
:102AF000FFF7B2FD401B484500F2A980206801465F
:102B000051F8142F1206EFD51CE000BF0A685205D9
:102B100000F1A0800A68120614D40A68520500F178
:102B200099800A6812060DD40A68520500F1928055
:102B30000A68120606D40A68520500F18B800A68FA
:102B40001206E3D5636A194611F8012B026161622E
:102B5000618D01396185278D0146A7F1010CA4F82B
:102B600028C051F8142F52070DD55FEA0C420AD045
:102B70005A78A7F1020C02619A1C6262628D013AD6
:102B80006285A4F828C00A6852072FD4B8F1000F54
:102B900014D0B9F1000F7BD00868400500F18080A7
:102BA000FFF75AFD401B484577D82068014651F889
:102BB000142F5207F0D5B4F828C017E00A68520560
:102BC0006ED40A68520711D40A68520568D40A689C
:102BD00052070BD40A68520562D40A68520705D41A
:102BE0000A6852055CD40A685207E7D55FEA0C41CF
:102BF0007FF46DAF016841F400710160202084F81A
:102C00003D0084F83E6084F83C60304601B0BDE889
:102C1000F08300BFFFF720FD202002E0FFF71CFD3E
:102C2000202000212022216384F83D2084F83E10DA
:102C3000226C01261043206484F83C10304601B019
:102C4000BDE8F0830868400504D4FFF705FD2020A7
:102C500004E000BF6FF4806008600420002120229F
:102C6000216384F83D2084F83E10226C10432064D8
:102C700084F83C10206C042825D1206801260168C6
:102C800041F400710160304601B0BDE8F08300BF3F
:102C90000868400504D4FFF7DFFC202004E000BFF3
:102CA0006FF480600860042000212022216384F8F2
:102CB0003D2084F83E10226C1043206484F83C10C0
:102CC000206C0428D9D00126304601B0BDE8F0833D
:102CD000B0B586B0016845F20040C4F20000814200
:102CE00002D006B0B0BD00BF002443F63005019409
:102CF000C4F20205296800F5D83041F002012960CC
:102D0000296801F00201019101994FF4407101918C
:102D10001221CDE90214032104910421059101A996
:102D2000FFF7B2FB0094286940F40010286128697D
:102D300000F400100090009806B0B0BD40F2000012
:102D400045F25401C2F20000C2F2000100780A68A4
:102D5000104408607047000080B543F60040C4F29C
:102D60000200016841F400710160016841F4806172
:102D70000160016841F480710160032000F0C4F833
:102D80000F2000F005F800F05DF8002080BD000085
:102D9000B0B586B0002543F644010195C4F20201A6
:102DA0000A68044642F001020A60096801A801F0BD
:102DB000010101910199694600F048FA00F07AFAA0
:102DC0004DF683614000C4F21B31A0FB01014FF0BE
:102DD000FF3000EB914140F618100022C2F20000D3
:102DE000C4F2010240F2E733C0E90021C0E9025316
:102DF0000561856100F0C2FC054618B1284606B0A1
:102E0000B0BD00BF40F61810C2F2000000F006FD91
:102E100005460028F2D1192000F036F80F2C0DD805
:102E2000192021460022002500F042F840F204005B
:102E3000C2F200000460284606B0B0BD0125284655
:102E400006B0B0BD82B0002043F640010190C4F24C
:102E500002014A6842F480424A604A6802F48042B1
:102E60000192019A00900868002240F080500860AA
:102E700008680F2100F08050009000986FF001006A
:102E800002B000F015B80000002848BF7047C1B27A
:102E900000F01F00012202FA00F04EF20012CEF202
:102EA000000242EAD10121F00301086070470000EE
:102EB00010B54EF60C5CCEF2000CDCF80030C3F31B
:102EC000022E8EF00704042C28BF0424BEF1030355
:102ED0004FF0FF3E0EFA04F438BF0023A14399409F
:102EE0000EFA03F39A43114300F00F0200F160431E
:102EF0000901043A03F564436244002848BF02F123
:102F00000C03197010BD00004EF60C51CEF20001FA
:102F10000A684FF6FF031A4060F30A2242F080600D
:102F200040F0FD70086070472DE9F04F8BB000282D
:102F300000F086800446056890F8BD0428B900209A
:102F400084F8BC04204600F08FF8032084F8BD0408
:102F5000E86BC0055CBF00202061206801F060FDC7
:102F6000206804F11C0A0A90D4E90C5004F1040E04
:102F70009AE8C0079EE80E58CDE9085003A880E8FB
:102F8000C0030A988DE80058CDF81CA001F0FEF9A6
:102F9000002852D120680021002501F049FD616818
:102FA00061B301200023002203EBC30304EB83077A
:102FB00087F83C20D3B20132A7F84430D3B299420B
:102FC00087F83D0087F84050C7E912557D65EBD87A
:102FD00000200023002200BF03EBC30304EB8307A0
:102FE00087F87C220132D3B2994287F87D0287F8B4
:102FF0008002C7E9A200C7F89402EDD8A068226851
:103000000A90D4E90C5004F1140E04F1240AD4E916
:1030100003379EE840589AE80007CDE9085002A817
:1030200080E8005810460A9ACDE90076CDE9058976
:10303000CDF81CA001F0AAFA40B1022084F8BD042A
:10304000012528460BB0BDE8F08F00BF0025012008
:1030500084F8385084F8BD04206801F087FA2846C7
:103060000BB0BDE8F08F0000F0B587B00068B0F19C
:10307000A04F01D007B0F0BD002743F630060297FD
:10308000C4F202063068002440F00100306030686D
:10309000C4F2020400F00100029002984FF4E850DC
:1030A00002900220CDE90307032005900A2002AD1B
:1030B000069020462946FFF7E7F94FF40070CDE966
:1030C0000207204629460497FFF7DEF9706840F0B2
:1030D000800070600197706940F480407061706991
:1030E00000F480400190019807B0F0BD2DE9F04157
:1030F000002800F08B8043F60808C4F2020804465A
:10310000D8F8F8030D4600F00F00884207D288F87F
:10311000F853D8F8F80300F00F00A84276D12068E1
:10312000810717D5410705D5D8F8001041F4E051C3
:10313000C8F80010010705D5D8F8001041F4604127
:10314000C8F80010D8F80010A26821F0F00111436F
:10315000C8F80010C0073FD1D8F8F80300F00F00FE
:10316000A84207D988F8F853D8F8F80300F00F0000
:10317000A8424BD12068410707D5D8F80010E26873
:1031800021F4E0511143C8F80010000708D5D8F821
:103190000000216920F4604040EAC100C8F8000046
:1031A00000F09CF8D8F8001049F60812C1F303119A
:1031B000C0F60002515C40F2080220FA01F140F230
:1031C0000400C2F200000068C2F200021160FFF7C2
:1031D000DFFD0020BDE8F0816068811E022907D272
:1031E00058F8081C89015CBF0120BDE8F08111E09E
:1031F000012807D158F8081C89035CBF0120BDE8ED
:10320000F08107E058F8081C890703D40120BDE8C5
:10321000F08100BFD8F8001021F003010843C8F87E
:103220000000FFF719FA064641F28837D8F8000087
:10323000616800F00C00B0EB810F8DD0FFF70CFA45
:10324000801BB842F2D90320BDE8F0810F22026052
:1032500043F60802C4F20202136803F0030343605A
:10326000136803F0F0038360136803F4E053C36052
:10327000D2F800C04FF4E05303EADC030361D2F854
:10328000F80300F00F0008607047000040F20800EB
:1032900043F60801C2F20000C4F2020100680968A6
:1032A00049F61812C1F38221C0F60002515CC840F1
:1032B0007047000040F2080043F60801C2F2000027
:1032C000C4F202010068096849F61812C1F34231DC
:1032D000C0F60002515CC8407047000010B543F6CC
:1032E0000404C4F20204606800F00C0142F20040E1
:1032F0000829C0F2F40007D0042918BF10BD41F21C
:103300000020C0F27A0010BD216801F03F02216860
:1033100023684902C3F3881106D4A1FB00010023EE
:10332000FCF7CCFF07E000BF41F20020C0F27A00BA
:103330004843B0FBF2F021680222C1F3014102EBE5
:103340004101B0FBF1F010BD2DE9F04182B0002841
:1033500068D00446007843F60006C007C4F20206AF
:103360000BD0B06800F00C00042840F09F8030685B
:10337000800302D56068002854D0207880071AD5D1
:10338000B06810F00C0F09D0B06800F00C000828ED
:1033900040F0A6807068400200F1A280306880078B
:1033A00002D5E06801283DD13068216920F0F8009D
:1033B00040EAC10030602078000737D42078400709
:1033C0004CD4A56955B3B06800F00C00082840F053
:1033D000BB80012D26D07068E16900F480028A422A
:1033E00020D1216A00F03F028A421BD147F6C0710A
:1033F000626A0140B1EB821F14D1A16A4FF6FF73DC
:10340000C903994300F44032A1F580318A4209D1C1
:10341000E16A00F07060B0EB016F03D1002002B0F0
:10342000BDE8F081012002B0BDE8F08160690028AC
:1034300040F20000C4F2472076D00121C0F8801E7F
:10344000FFF70AF9054600BF706F8007B6D4FFF793
:1034500003F9401B0228F7D9DDE000BF306C10F003
:1034600080580AD100200190306C40F080503064C8
:10347000306C00F080500190019847F20007C4F2D0
:1034800000073868C00541D4386840F4807038605F
:10349000FFF7E2F8054600BF3868C00536D4FFF7ED
:1034A000DBF8401B0228F7D9B5E000BFB06800F098
:1034B0000C00082803D1706840023FF558AF6068DF
:1034C000B0F5803F07D0B0F5A02F40F08D80306878
:1034D00040F480203060306840F4803030608DE00F
:1034E000E068002852D00020C4F24720012101608A
:1034F000FFF7B2F8054600BF306880073FF554AFCC
:10350000FFF7AAF8401B0228F6D984E0A06801283A
:1035100005D005284ED1306F40F004003067306F81
:1035200040F0010030674FE00021C0F8801EFFF737
:1035300093F80546706F80077FF540AFFFF78CF872
:10354000401B0228F6D966E00027C4F24727002076
:103550003866FFF781F8022D05460BD130688001EF
:103560005ED5FFF779F8401B02284FF00300F5D92C
:1035700055E700BF306880017FF550AFFFF76CF86A
:10358000401B02284FF00300F4D948E70020C4F2A2
:10359000472000210160FFF75FF80546306880078B
:1035A0007FF509AFFFF758F8401B02284FF00300E2
:1035B000F4D934E7316F002821F001013167316F10
:1035C00021F0040131674DD0FFF746F8054641F27E
:1035D000883700BF306F800756D4FFF73DF8401B97
:1035E000B842F7D917E000BF3168002821F48031D4
:1035F0003160316821F4802131604FD0FFF72CF821
:10360000054600BF306880033FF5B7AEFFF724F8EA
:10361000401B6428F6D9032002B0BDE8F08100BF4A
:1036200004F11C052FCD084340EA8210D9034FF660
:10363000FF729143A1F5803140EA05600843706054
:1036400001203866FFF708F8044600BF30688001A3
:103650003FF5E4AEFFF700F8001B02284FF003002F
:10366000F4D9DCE6FEF7F8FF054641F2883700BFE3
:10367000306F800708D5FEF7EFFF401BB8424FF0D0
:103680000300F5D9CBE600BFB8F1000F7FF499AE87
:10369000306C20F08050306493E600BFFEF7DCFF12
:1036A000054600BF306880037FF567AEFEF7D4FFA4
:1036B000401B64284FF00300F4D9B0E670470000C7
:1036C0007047000010B590F83C20012A4FF002022C
:1036D00051D080F83D200268D2F804E0D2F808C04A
:1036E0000C682EF07003234341F2FF74C4F200040F
:1036F000A24253600EDC40F2FF73C4F200039A4210
:1037000016DCB2F1804F2BD040F20043C4F200032C
:1037100024E000BF40F2FF33C4F201039A4213DCFD
:1037200041F60003C4F200039A4219D0002313E0CB
:1037300040F60003C4F200039A4211D040F6004361
:10374000C4F200030AE000BF44F20003C4F2010324
:103750009A4205D040F20043C4F201039A4204D1D8
:1037600049682CF08003194391600121002280F800
:103770003D1080F83C20104610BD0000002804BF1A
:103780000120704710B5044690F83D0028B900208C
:1037900084F83C00204600F01FF8022084F83D0029
:1037A0002068211D00F0DCFC012084F8460084F82C
:1037B0003E0084F83F0084F8400084F8410084F81B
:1037C000420084F8430084F8440084F8450084F8FB
:1037D0003D00002010BD000080B582B00068B0F14F
:1037E000804F1CBF02B080BD0020019043F6400016
:1037F000C4F202000168002241F00101016000688A
:10380000052100F00100019001981C20FFF750FBFA
:103810001C2002B0BDE88040FFF736BB90F83D1099
:1038200001291CBF01207047022180F83D1000686B
:1038300041F2FF72C168C4F20002904241F00101FE
:10384000C1600DDC40F2FF71C4F20001884215DC5A
:10385000B0F1804F2AD040F20041C4F2000123E0D1
:1038600040F2FF31C4F20101884213DC41F600014D
:10387000C4F20001884219D0002113E040F6000193
:10388000C4F20001884211D040F60041C4F20001A8
:103890000AE000BF44F20001C4F20101884205D0F1
:1038A00040F20041C4F20101884206D1816801F072
:1038B0000701062904BF00207047016841F001019B
:1038C000016000207047000080B590F83C20012A7C
:1038D0004FF0020200F0C28080F83D20D0F800C016
:1038E0004FF67772DCF8083023EA0202CCF80820A1
:1038F0000B684F2B28DC1F2B44DD202B45D0302BB1
:1039000043D0402B40F0AC80D1F804E0C968DCF82B
:103910002030DCF8202022F00102CCF82020DCF856
:10392000182022F0F00242EA011123F00A0242EAD2
:103930000E02CCF81810CCF82020DCF8081041F06A
:10394000470121F0300180E06F2B27DDB3F5005FE8
:1039500048D0B3F5805F7AD0702B40F08180D1E9F8
:1039600001E3C968DCF8082043EA0E0322F47F4231
:1039700043EA01211143CCF80810DCF8081041F0AB
:10398000770162E00BB1102B6AD1DCF8081021F04E
:103990007001194341F0070157E000BF502B35D0AB
:1039A000602B5DD1D1F804E0C968DCF8203023F049
:1039B0001003CCF82030DCF81830DCF8202023F499
:1039C000704322F0A00243EA013142EA0E12CCF821
:1039D0001810CCF82020DCF8081041F0670121F025
:1039E000100132E0D1E901E3C968DCF8082043EABC
:1039F0000E0322F47F4243EA01211143CCF8081060
:103A0000DCF8081041F480411FE000BFD1F804E069
:103A1000C968DCF82030DCF8202022F00102CCF864
:103A20002020DCF8182022F0F00242EA011123F0F5
:103A30000A0242EA0E02CCF81810CCF82020DCF87A
:103A4000081041F0570121F02001CCF808100022A5
:103A5000012180F83D10002180F83C10104680BD07
:103A60000122F5E77047000010B5016804460869B7
:103A7000800744BFC8685FEA807039D4086940078E
:103A800044BFC8685FEA40703ED40869000744BF7D
:103A9000C8685FEA007045D40869C00644BFC868BA
:103AA0005FEAC0604AD40869C0071CBFC8685FEA03
:103AB000C07051D10869000644BFC8685FEA006061
:103AC00052D40869400644BFC8685FEA406053D4D6
:103AD0000869800646BFC8685FEA806010BD6FF065
:103AE000200220460A61BDE81040FFF7E9BD00BF93
:103AF0006FF002000861012020778869800743D0B9
:103B00002046FFF7AFFF45E06FF004000861022098
:103B10002077886910F4407F40D02046FFF7A2FF4D
:103B200042E000BF6FF00800086104202077C869F8
:103B300080073DD02046FFF795FF3FE06FF0100073
:103B4000086108202077C86910F4407F3AD02046E9
:103B5000FFF788FF3CE000BF6FF0010008612046DE
:103B600000F03EF82168A5E76FF08000086120466C
:103B7000FFF7A4FD2168A4E76FF04000086120462C
:103B800000F038F82168A3E7204600F025F8204629
:103B900000F024F82168002020776FE7204600F02D
:103BA0001BF8204600F01AF82168002020776CE707
:103BB000204600F011F8204600F010F8216800209F
:103BC000207769E7204600F007F8204600F006F865
:103BD00021680020207766E77047000070470000EA
:103BE00000680021C4F20101884218BF7047FFF746
:103BF000A5B8000070470000002804BF01207047EE
:103C000010B5044690F83D0028B9002084F83C0027
:103C1000204600F021F8242084F83D002068C16887
:103C200021F40051C160204600F038FB2068016992
:103C300021F490410161416921F02A014161C1688B
:103C400041F40051C16000202021206484F83D101F
:103C500084F83E1010BD000080B586B0016844F6BF
:103C60000000C4F20000814202D006B080BD00BF57
:103C7000002143F630020191C4F20202136900F5FB
:103C8000E23043F480231361136903F4802301932A
:103C9000019B0191136843F008031360126802F05E
:103CA00008020192019A4FF4407201920222CDE97A
:103CB0000221032104910721059101A9FEF7E4FBEC
:103CC00006B080BDFEE7000010B540F2840448F263
:103CD0000002C2F20004C0F2E10240F2083048F2F1
:103CE000000C2260002240F2682340F2C811C2F2A8
:103CF0000000C4F2020CA2804FF40002C2F20003E2
:103D0000C2F2000140F2F45EC0E900C4C0E902233F
:103D1000C0E9041EFEF7F4F9002818BFFEF7D6F933
:103D200004F10C003421FCF7DAFC2120A0604FF4F0
:103D30004000E06110BD00002DE9F04387B000278E
:103D400043F63000CDE905770197C4F2020001681F
:103D500041F6000441F0040101600168C4F202046C
:103D600001F004010191019901970168A4F5A056A1
:103D700041F0800101600168002201F080010191A1
:103D800001990197016844F2810941F00101016044
:103D9000016801F00101019101990197016841F069
:103DA00002010160016801F002010191019901978E
:103DB000016841F020010160016801F020010191DA
:103DC00001990197016841F008010160016801F063
:103DD0000801019101990197016841F040010160DA
:103DE000006844F2810100F04000019001983046E3
:103DF000FEF72CFC2046402100224FF04008FEF741
:103E000025FC4FF4005002904FF4881002ADCDE92C
:103E10000307A4F580502946FEF736FBCDF808903D
:103E20004FF0010930462946CDE903970597FEF783
:103E30002BFB4FF48050CDE90207A4F580602946A2
:103E40000497FEF721FB20462946CDE90289CDE9FA
:103E50000477FEF719FB8020CDE9020720462946AA
:103E60000497FEF711FB07B0BDE8F08380B540F280
:103E7000B83045F20041C2F20000C4F2000141F640
:103E8000802200234FF4804CC0F2060280E80E002E
:103E9000C0E9033CC0E90533C0E90733FEF720FC65
:103EA000002818BFFEF712F940F2B830C2F2000045
:103EB0000021FEF7D7FB002818BFFEF707F940F2F4
:103EC000B830C2F200000021FEF7EAFB002808BF6C
:103ED00080BDBDE88040FEF7F9B8000080B586B02F
:103EE00040F660100021C2F200004FF080425323E0
:103EF0004FF0FF3C0591CDE90311CDE90011C0E978
:103F00000023C0E9021C01618161FFF737FC002832
:103F100018BFFEF7DBF84FF48050029040F66010B7
:103F2000C2F2000002A9FFF7CFFC002818BFFEF77D
:103F3000CDF840F66010C2F200006946FFF7C2FB00
:103F4000002818BFFEF7C2F806B080BD80B540F665
:103F5000A81044F60001C2F20000C4F200010023E0
:103F60004FF00C0C4FF4E13280E80E00C0E903334F
:103F7000C0E905C3C361FFF73FFE002808BF80BD4D
:103F8000BDE88040FEF7A2B880B540F20C40C2F216
:103F900000004FF0A0410422C0E9001202210022DB
:103FA0000123C0E90312C0E90613C0E90822C0E9F1
:103FB0000B32FEF7B9FF002808BF80BDBDE8804086
:103FC000FEF784B8FEE70000FEE7000000000000F6
:103FD000EFF30980BFF36F8F154B1A681EF0100FB7
:103FE00008BF20ED108A20E9F04F10602DE909008C
:103FF0004FF0500080F31188BFF34F8FBFF36F8FE6
:1040000003F0ACFB4FF0000080F31188BDE809001D
:1040100019680868B0E8F04F1EF0100F08BFB0EC48
:10402000108A80F30988BFF36F8F704700BF00BF0D
:10403000C40000200000000000000000000000009C
:10404000074B19680868B0E8F04F80F30988BFF3A0
:104050006F8F4FF0000080F31188704700BF00BFE2
:10406000C400002080B54EF21000CEF200000068BF
:1040700004F0F4F8012808BF80BDBDE8804003F0DB
:104080008DBC0000B0B592B0002443F64000CDE9ED
:104090000A44CDE908440594CDE90344CDE901443F
:1040A0000094C4F202000168022541F080510160D1
:1040B000006800F080500090009847F200000094E3
:1040C000C4F20000016841F440410160006800F45E
:1040D000404000900098012006904FF480300790F7
:1040E0004FF480000D9004200E90A820CDE90F051C
:1040F0000720119006A80C95FFF726F920B1EFF3E1
:10410000108072B6FEE700BF0F20CDE901054FF425
:10411000A05004904FF48050059001A8052103940D
:10412000FEF7E4FF20B1EFF3108072B6FEE700BFA8
:1041300012B0B0BD4EF68850CEF20000016841F4D6
:10414000700101607047000040F61810C2F20000D4
:10415000FFF78ABC40F66010C2F20000FFF784BC93
:1041600010B540F6FF3E0368C4F2000E40F2004C6A
:104170007045C4F2010C27DCB0F1804F31D040F221
:104180000042C4F2000290422BD040F60002C4F27A
:104190000002904225D041F6FF72C4F20002904224
:1041A00029DC70453CDCB0F1804F5FD040F200422A
:1041B000C4F20002904259D040F60002C4F200025C
:1041C000904253D056E000BF40F60042C4F20002D5
:1041D000904206D0604504D00022C4F20102904211
:1041E000D9D14A6823F07003134341F6FF72C4F239
:1041F00000029042D5DD43F6FF72C4F20102904204
:1042000022DC42F20002C4F2000290422ED00022D0
:10421000C4F20102904229D0604527D02AE000BFB5
:1042200040F60042C4F2000290421FD041F6000264
:10423000C4F20002904219D041F60042C4F20002DA
:10424000904213D016E000BF44F20002C4F2010213
:1042500090420BD044F60002C4F20102904205D015
:1042600044F20042C4F20102904203D1CA6823F42E
:104270004073134323F080024B69D1F800E08C684F
:104280001A430260C46240F48062C0F828E06245CC
:1042900004BF096901630121416110BD10B50446E5
:1042A0000068D4E902C22369016921F44051114335
:1042B0000161626943EA0C01E3691143C268194371
:1042C00049F20C639A431143C1604169A26921F428
:1042D000407141F20043114340F48062C4F2010393
:1042E0009A42416102D1FEF7E5FF01E0FEF7CEFF01
:1042F000E16963681922B1F5004FA0FB020123D1E7
:104300005A00DB0FFBF7DAFF48F21F51C5F2EB1141
:10431000A0FB01235A094FF69C73C0F6FF7303F10B
:10432000805302FB0300322303EBC000A0FB01011A
:104330004FF4F87000EA111000EB0210C1F34211C3
:1043400008442168886010BD9A009B0FFBF7B6FFF8
:1043500048F21F51C5F2EB11A0FB01235A094FF699
:104360009C73C0F6FF7302FB0300322303EB0010C3
:10437000A0FB0101F02000EA511000EB0210C1F394
:10438000431108442168886010BD000082B0049980
:10439000DDF808C0012940F64051C0F203016FD199
:1043A000826B4FF6BF7322F480328263C268CFF60D
:1043B000BD731A40C260C2680B9B22F44012012BED
:1043C000C26003D1C26842F48012C260002200922F
:1043D000009A01320092009A8A4200F2A980026992
:1043E000002A1ED4009A01320092009A8A4200F2FA
:1043F0009F800269002A14D4009A01320092009A28
:104400008A4200F295800269002A0AD4009A013299
:104410000092009A8A4200F28B800269B2F1FF3F5B
:10442000D6DC00220092026942F001020261009A89
:1044300001320092009A8A427AD80269D2071AD0D1
:10444000009A01320092009A8A4271D80269D2071A
:1044500011D0009A01320092009A8A4268D802690B
:10446000D20708D0009A01320092009A8A425FD89F
:104470000269D207DBD10021BCF1010F72D169E0E2
:10448000C268089B42F04002C26000220192019A79
:1044900001320192019A8A4250D80269002A1BD443
:1044A000019A01320192019A8A4247D80269002A90
:1044B00012D4019A01320192019A8A423ED80269CD
:1044C000002A09D4019A01320192019A8A4235D810
:1044D0000269B2F1FF3FDADC00220192026942F088
:1044E00001020261019A01320192019A8A4225D8A1
:1044F0000269D2071AD0019A01320192019A8A42C6
:104500001CD80269D20711D0019A01320192019A96
:104510008A4213D80269D20708D0019A0132019267
:10452000019A8A420AD80269D207DBD1002106E04B
:104530000321BCF1010F15D10CE000BF0321826BF8
:10454000002B14BF22F4803242F480328263BCF12B
:10455000010F07D1826842F006028260826842F051
:1045600020028260084602B0704700000146D0F881
:10457000000E20F00300C1F8000ED1F8040840F04E
:1045800002020020C1F80428704700002DE9F04F16
:1045900083B0DDF84C800E9F0022B8F1000FC0F808
:1045A0000421C0F80821C0F80C21C0F81021C0F87F
:1045B0001421C0F81821C0F81C21C0F82021C0F82F
:1045C0002421C0F82821C0F82C21C0F83021C0F8DF
:1045D0003421C0F83821C0F83C210BD0826B00F5A3
:1045E000006B22F400128263826B42F40022826329
:1045F00014E000BFD0F8042800F5006B42F002027E
:10460000C0F80428826B42F400128263826B22F4A9
:1046100000228263866B26F4802686630026C0F81B
:10462000006ED0F80068012FC0F8006806D1DBF8F2
:104630000070002B18BF47F0010703E0DBF80030E3
:1046400043F00307DDF83CE0DDF8309040F64055DC
:10465000C0F203050023C0F800780193019B0133E9
:104660000193019BAB4249D80369002B1BD4019BEA
:1046700001330193019BAB4240D80369002B12D454
:10468000019B01330193019BAB4237D80369002B97
:1046900009D4019B01330193019BAB422ED80369DE
:1046A000B3F1FF3FDADC002301934FF4846303612D
:1046B000019B01330193019BAB421FD803699B0609
:1046C0001AD5019B01330193019BAB4216D80369B4
:1046D0009B0611D5019B01330193019BAB420DD881
:1046E00003699B0608D5019B01330193019BAB42F3
:1046F00004D803699B06DBD4002400E001240023D6
:104700000293029B01330293029BAB4248D8036998
:10471000002B1BD4029B01330293029BAB423FD878
:104720000369002B12D4029B01330293029BAB421C
:1047300036D80369002B09D4029B01330293029BF4
:10474000AB422DD80369B3F1FF3FDADC00230293BB
:1047500010230361029B01330293029BAB421FD8DB
:104760000369DB061DD5029B01330293029BAB421A
:1047700016D80369DB0614D5029B01330293029B12
:10478000AB420DD80369DB060BD5029B01330293C4
:10479000029BAB4204D80369DB06DBD401E000BF17
:1047A00001244FF0000A0029CBF810A0CBF814A088
:1047B000CBF81CA000F00681D0F800394FF000675C
:1047C00007EA13134FF67F324E1EC0F80039C0F8C7
:1047D00010A9C0F808297BD08B1E032B06F0030913
:1047E0007246009404D22024B9F1000F3FD165E055
:1047F00026F0030400234FF0904E4FF67F384FF021
:10480000000C00BF00EB0C05D5F82079043C0EEA43
:10481000E777C5F82079C5F83039C5F82889D5F883
:1048200040790CF1800C0EEAE777C5F84079C5F8BD
:104830005039C5F84889D5F860790EEAE777C5F8A8
:104840006079C5F87039C5F86889D5F880790EEABD
:10485000E777C5F88079C5F89039C5F88889D1D14E
:10486000DDF84C800CF12004B9F1000F26D000F5E2
:1048700010673D594FF0904C0CEAE5753B193D51DE
:1048800000244FF67F3EB9F1010F1C61C3F808E028
:1048900014D01D6AB9F1020F0CEAE5771F621C63A0
:1048A000C3F828E00AD01F6C4FF0904505EAE7777F
:1048B0001F6400271F654FF67F379F64DDF8309037
:1048C000009C002996464FF67F324FF0006779D062
:1048D000D0F8003B002E07EA1313C0F8003B4FF05E
:1048E0000003C0F8103BC0F8082B6BD00239032935
:1048F00006F0030C04D22023BCF1000F3DD161E08F
:10490000009426F0030400234FF090474FF67F36C3
:10491000002100BF4518D5F8202B043C07EAE272BD
:10492000C5F8202BC5F8303BC5F8286BD5F8402BCF
:1049300001F1800107EAE272C5F8402BC5F8503B4F
:10494000C5F8486BD5F8602B07EAE272C5F8602B12
:10495000C5F8703BC5F8686BD5F8802B07EAE272A2
:10496000C5F8802BC5F8903BC5F8886BD2D1009C68
:1049700001F12003BCF1000F24D000F53062D658BD
:104980004FF0904707EAE676D118D65000264FF64A
:104990007F33BCF1010F0E618B6013D00A6ABCF14A
:1049A000020F07EAE2720A620E638B620AD00A6C97
:1049B0004FF0904303EAE2720A6400220A654FF660
:1049C0007F328A64DBF81010B9F1000F21F4807196
:1049D000CBF810106FF08041C0F818A0416103D1EE
:1049E000816941F010018161816943F60002C8F2DA
:1049F0003C021143BEF1000F816103D0816941F097
:104A000008018161B8F1010F05D1816941F0804150
:104A100041F004018161204603B0BDE8F08F000041
:104A20000146806820F0010200208A607047000083
:104A3000B0B50446C06820F0C040E06091B10129E3
:104A400026D1E068002540F00050E0600120FDF72D
:104A500043FB6069C00705F1010014D1312D054603
:104A6000F4D310E0E068002540F08040E06000BF33
:104A70000120FDF731FB6069C00705F1010002D09C
:104A8000312D0546F4D33238B0FA80F04009B0BD7C
:104A90000120B0BDFEE700002DE9F04786B04FF4DD
:104AA000805041F2004A01901120C4F2020A0290A3
:104AB0000220049001A95046FDF7E6FC50464FF451
:104AC000805100220024FDF7C1FD40F66019C2F2BA
:104AD0000009D9F8000044F620624462016841F000
:104AE0000101016044F61F61436A8B4208D8436AA2
:104AF0008B4205D8436A8B4202D8436A9342F3D370
:104B0000016A41F21112114208D1016A40F2444295
:104B1000114203D1016821F00101016050464FF4B8
:104B200080510122FDF792FDD9F800000021416279
:104B3000016841F001010160416A1D2908D8416AFC
:104B40001D2905D8416A1D2902D8416A1E29F3D3BF
:104B5000016A41F21112114208D1016A40F2444245
:104B6000114203D1016821F0010101604FF480502E
:104B7000019001200025039001A950460295FDF700
:104B800083FC50464FF48051FDF752FD20B128467A
:104B900006B0BDE8F08700BF41F2111740F244486B
:104BA000002609E0016A39421CD050464FF480517A
:104BB000661CFDF73DFDF8B9D9F8000034464562A2
:104BC000016841F001010160416A0029EAD1416AAE
:104BD0000029E7D1416A0029E4D1416A0029F3D0D4
:104BE000E0E700BF016A11EA080FDED1016821F099
:104BF00001010160D9E700BFA4F16400C0B2AF2891
:104C000004D20025284606B0BDE8F08750464FF490
:104C10008051FDF70DFD00284FF00005B7D041F29F
:104C2000111740F2444800240AE000BF016A3942EB
:104C30001CD050464FF48051741CFDF7F9FCF8B1BC
:104C4000D9F8000026464562016841F00101016083
:104C5000416A0029EAD1416A0029E7D1416A002965
:104C6000E4D1416A0029F3D0E0E700BF016A11EA0C
:104C7000080FDED1016821F001010160D9E700BF12
:104C8000A6F11300C0B20025512838BF01252846DF
:104C900006B0BDE8F087000082B0FEF75DF8FFF7D0
:104CA000F1F9FFF749F8FFF70FF8FFF7DFF8FFF723
:104CB0004DF9FFF769F9FFF711F9052004210022EA
:104CC00002F084FE40F27004C2F20004606005202D
:104CD0000421002202F07AFE20600120002103223C
:104CE000012602F073FEE06045F6C90004F10805F4
:104CF000C0F6000010A14FF4007200230096019549
:104D000003F040FA0220009045F63D0004F1100641
:104D1000C0F600000AA14FF496620023019603F04A
:104D200031FAE06800210022002302F003FF02F0C4
:104D300095FC00BFFEE700BF646973706C61790089
:104D400073656E736F724448543131002DE9F04140
:104D5000044602F025FA40F2C406C2F20006F068EA
:104D600040F6DC250130F0603068C2F2000558B131
:104D70003069002840F007813068E16AC06A8842E3
:104D800098BF3460FFE000BF3460F068012840F055
:104D9000FA80284602F0AAF905F1140002F0A6F9FB
:104DA00005F1280002F0A2F905F13C0002F09EF99D
:104DB00005F1500002F09AF905F1640002F096F94D
:104DC00005F1780002F092F905F18C0002F08EF9FD
:104DD00005F1A00002F08AF905F1B40002F086F9AD
:104DE00005F1C80002F082F905F1DC0002F07EF95D
:104DF00005F1F00002F07AF905F5827002F076F91B
:104E000005F58C7002F072F905F5967002F06EF9F6
:104E100005F5A07002F06AF905F5AA7002F066F9CE
:104E200005F5B47002F062F905F5BE7002F05EF9A6
:104E300005F5C87002F05AF905F5D27002F056F97E
:104E400005F5DC7002F052F905F5E67002F04EF956
:104E500005F5F07002F04AF905F5FA7002F046F92E
:104E600005F5027002F042F905F5077002F03EF90F
:104E700005F50C7002F03AF905F5117002F036F9FB
:104E800005F5167002F032F905F51B7002F02EF9E7
:104E900005F5207002F02AF905F5257002F026F9D3
:104EA00005F52A7002F022F905F52F7002F01EF9BF
:104EB00005F5347002F01AF905F5397002F016F9AB
:104EC00005F53E7002F012F905F5437002F00EF997
:104ED00005F5487002F00AF905F54D7002F006F983
:104EE00005F5527002F002F905F5577002F0FEF870
:104EF00005F55C7002F0FAF805F5617002F0F6F85D
:104F000005F5667002F0F2F805F56B7002F0EEF848
:104F100005F5707002F0EAF805F5757002F0E6F834
:104F200005F57A7002F0E2F805F57F7002F0DEF820
:104F300005F5826002F0DAF805F2244002F0D6F8B6
:104F400005F5876002F0D2F805F24C4002F0CEF889
:104F500040F2A018C2F20008404602F0C7F808F17B
:104F60001407384602F0C2F806F1640002F0BEF8F9
:104F700006F13C0002F0BAF806F1500002F0B6F873
:104F8000C6F81C8037627068716A421CE06A726001
:104F90008842626488BF706200EB800005EB80008D
:104FA000211D02F0E5F802F01FF9306988B1306880
:104FB000E16AC06A884228BFBDE8F0814EF604501D
:104FC000CEF200004FF080510160BFF34F8FBFF36E
:104FD0006F8FBDE8F081000040F2C40540F6DC268A
:104FE0004EF60458C2F20005C2F20006CEF20008E6
:104FF0004FF0805703E000BF204602F00DF9A8688B
:10500000D0B102F0CDF8A86CC468201D02F016F8EB
:10501000E8680138E860A8680138A86002F0E4F8A0
:1050200094F859000228EAD00128E5D070B9206B25
:1050300002F0F2F8E0E700BF30680228DFD3C8F8DA
:105040000070BFF34F8FBFF36F8FD8E74FF0500062
:1050500080F31188BFF36F8FBFF34F8FFEE700001F
:105060002DE9F0470A9C8246206B16460F46DDE983
:1050700008599100A5229846FBF707FB206B002FEB
:1050800000EB8600A0F1040020F0070656D0387827
:1050900084F83400387800284BD0787884F83500CC
:1050A0007878002845D0B87884F83600B878002899
:1050B0003FD0F87884F83700F878D0B3387984F89E
:1050C00038003879A8B3787984F83900787980B3D2
:1050D000B87984F83A00B87958B3F87984F83B0085
:1050E000F87930B3387A84F83C00387A08B3787AA3
:1050F00084F83D00787AE0B1B87A84F83E00B87A56
:10510000B8B1F87A84F83F00F87A90B1387B84F827
:105110004000387B68B1787B84F84100787B40B1EF
:10512000B87B84F84200B87B00281CBFF87B84F869
:105130004300002084F8430003E000BF002084F80F
:1051400034000027201D372D28BF3725E562C4E92C
:10515000135701F0D7FF04F1180001F0D3FFC5F198
:105160003800A0613046514642462461646267655A
:1051700084F8587000F04EFBB9F1000F206018BFA2
:10518000C9F80040BDE8F08708480068006880F36F
:1051900008884FF0000080F3148862B661B6BFF350
:1051A0004F8FBFF36F8F00DF00BF000008ED00E0FE
:1051B00081B00020009040F20C00C2F200000068B4
:1051C0004FF0500181F31188BFF36F8FBFF34F8F02
:1051D000013007D0FEE700BF009830B9009820B931
:1051E000009810B900980028F6D001B07047000070
:1051F00088B040F23C1AC2F2000A0DF11009EB46E9
:10520000DAF8080005681DB1C068046801E000BF55
:10521000002402F09BFA03F031F8DAF81010064689
:10522000884220D3002DCAF8106051D0A6424FD337
:1052300003F076F9DAF80800C068C7683D1D284613
:1052400001F0FCFE97F82800410745D400F0FE006D
:1052500087F8280084E000BF6860DAF80800394663
:105260002D6101F053FFDAF80800016831B3C0681E
:10527000C56804682F1D384601F0E0FE296A2846FB
:10528000884795F828004007EDD5A8692044A0423A
:10529000E2D8DAF80000002800F04881002004A9D4
:1052A00031C102F0DBFFDAF800004946002200239A
:1052B00002F040FC0028D6D138E100BFDAF80C102B
:1052C000CAF81060CAE9021003F02AF91AE100BF17
:1052D00065B1002210E000BFB8693F610119B14219
:1052E00079601FD90AF1080021E000BFDAF80C004C
:1052F0000068B0FA80F04209DAF80000A11B02F061
:1053000067F803F00DF9002840F0FC804EF60450D9
:10531000CEF200004FF080510160BFF34F8FBFF31A
:105320006F8FEFE0311B814206D20AF10C0000685A
:10533000294601F0EBFE13E0DAF80000002800F047
:105340001381002004A991C102F088FFDAF800005F
:1053500049460022002302F0EDFB002800F0048102
:10536000396A38468847CDE00098B0F1FF3F07DC46
:10537000DDE90120039990470098002800F1C280E0
:10538000029E706910B1301D01F058FE02F076FFE8
:10539000DAF81010074688420DD30098CAF810704A
:1053A00009283FD9AEE000BF6860DAF8080021465E
:1053B0002D6101F0ABFEDAF80800016841B3C06866
:1053C000C568D0F800802C1D204601F037FE296A00
:1053D0002846884795F828004007ECD5A86940443E
:1053E0004045E1D8DAF80000002800F09580002060
:1053F000CDE90408069502F031FFDAF800004946CD
:105400000022002302F096FB0028D4D184E000BFE4
:10541000DAF80C10CAE902100098CAF810700928CE
:1054200000F27080DFE800F00606064448620606D7
:10543000444800BF96F82800019A40F00101B06985
:1054400086F828108318314641F8043FBB42366184
:1054500006D997420AF1080007D293420AD204E023
:10546000BA1A824206D20AF10C00006801F04EFE20
:1054700048E000BF316A3046884796F82800400768
:1054800040D5DAF8000000285AD00198B169069694
:1054900008440021CDE9041002F0E0FEDAF8000033
:1054A00049460022002302F045FB58BB48E000BFFC
:1054B00096F8280022E000BF96F8280040F001018D
:1054C000019886F828100028B06143D0384431464E
:1054D0000AF10C0241F8040F3661B84288BF0AF1A4
:1054E0000802106801F012FE0CE000BF96F82800D8
:1054F000810703D4304601F08FFE03E000F0FE0088
:1055000086F82800DAF800005946002202F028FC4C
:1055100000287FF429AF73E64FF0500080F3118824
:10552000BFF36F8FBFF34F8FFEE700BF4FF0500008
:1055300080F31188BFF36F8FBFF34F8FFEE700BF7B
:105540004FF0500080F31188BFF36F8FBFF34F8F80
:10555000FEE700BF4FF0500080F31188BFF36F8F5C
:10556000BFF34F8FFEE700BF4FF0500080F311886C
:10557000BFF36F8FBFF34F8FFEE70000F0B581B030
:10558000044601F00DFE94F94560012E0FDB04F195
:10559000240500BF286850B1284602F087FF002884
:1055A00018BF01F089FFF0B2013E0128F2D8FF26B2
:1055B00084F8456001F018FE01F0F2FD94F94470A2
:1055C000012F0EDB04F11005286850B1284602F0C7
:1055D0006DFF002818BF01F06FFFF8B2013F0128EE
:1055E000F2D884F8446001B0BDE8F04001F0FCBDA1
:1055F00070B5044602F0AAF840F2781CC2F2000C22
:10560000DCF8040050B19CF80000002818BF4FF0EF
:1056100000404FF0000574BB8DE000BF41F25240E6
:10562000C2F20000C21D22F0070210F00701A0EB39
:10563000020318BF104600224FF47055CCE9060251
:10564000002918BF03F57055411921F00701A1F198
:105650000803CCF8043041E90222191AC0E90031EC
:1056600001208CF800004FF00040CCE90211002C22
:105670004FF000055FD020405DD124F0070000F11D
:105680001002600708BF04F10802002A4FF000056D
:1056900051D0DCF8080082424DD8604650F818EF2F
:1056A000DEF8045095422CD2DEF80010C1B17446E9
:1056B0004D68954218D20B68B3B15D68954217D218
:1056C0001868A8B14568954216D20468A4B1656807
:1056D000954215D22168A6460029E9D111E000BF04
:1056E0000CF118000DE000BF8E46204609E000BF17
:1056F0009E46084605E000BF8646184601E000BF0A
:10570000A646DCF804108E4514D00168DEF800408F
:10571000AB1A112B04604DD30EEB0205680719D0AC
:105720004FF0500080F31188BFF36F8FBFF34F8F9E
:10573000FEE700BF002502F0F3FE68075BD04FF0E4
:10574000500080F31188BFF36F8FBFF34F8F00BFFE
:10575000FEE700BF0CF118006B60CEF8042000BF1C
:105760000368AB420AD21868A8420BD20368AB4266
:1057700004D218681A46A842F2D304E0024618463A
:1057800001E000BF1A4653686C68D618AE4202D1D9
:105790001C44154654602B19834207D1DCF80430B1
:1057A000984203D0D0E9000323446B60AA422860EA
:1057B00018BF156001F10805DEF80400DCE90212EB
:1057C000091A9142CCF8081038BFCCF80C109CF89C
:1057D0000010002918BF40F00040CEF80400DCF8AB
:1057E000100000210130CEF80010CCF8100002F0BB
:1057F00097FE6807A3D1284670BD000040F2C400A0
:10580000C2F20000016819B101680A6D01320A652F
:1058100000687047034645F2B110C0F600004FF033
:10582000807C21F0010103E903106FF0020043F8CE
:10583000240CA3F1440043F8202C704782B040F2BE
:10584000004440F27007C4F202044FF00008C2F2B4
:1058500000076D4601AE00BF204680210122FCF703
:10586000F5FE204601210022FCF7F0FE20464FF411
:105870008041CDE90088FCF7E1FEF8684FF0FF3188
:1058800002F040FB28463146FCF75CFA20464FF414
:105890008041FCF7D3FE786831464FF0FF32002399
:1058A00002F048F9386829464FF0FF32002302F031
:1058B00041F940F6B83001F0B5FDF868002100224A
:1058C000002302F037F9C7E79CB040F63C75C2F2FE
:1058D000000540F200482846C4F2020800F0B8F87B
:1058E000284600F0D1F8284600F0DAF849F63C11D5
:1058F000C0F60001284600F0F5F944A3284600212F
:105900001422002400F062F942A328460021282234
:1059100000F05CF9284600F0CDF940F2700640F640
:105920003C79C2F200061AAD4FF08057C2F200096E
:105930000CE000BF4EF60450CEF200000760BFF34B
:105940004F8FBFF36F8F642001F06CFD40468021C4
:105950000022FCF77BFE404601210122FCF776FE87
:105960003068294640F6B8321B941A9402F0F8F9D0
:105970000128DFD170681BA940F6B83202F0F0F9B7
:105980000128D7D11B9803F06FFE41EC100B0DF1ED
:10599000480A5046202123A234468DED000BFAF729
:1059A00005FD1A9803F060FE41EC100B0DF1280B79
:1059B000584620211EA28DED000BFAF7F7FC484651
:1059C00000F062F84846002114225346002400F0FB
:1059D000FDF84846002128225B4600F0F7F8B06841
:1059E00001F03EFB02AFC0F500733846202114A23F
:1059F000FAF7DCFC484600213C223B4600F0E6F882
:105A000048464FF0805700F055F99CE7576169749C
:105A1000696E6700444854313120526573706F6E6F
:105A20007365000054656D703A252E316620430081
:105A300048756D693A252E31662025250000000045
:105A40007573654D656D4F6C65643A256C75000026
:105A500010B549F6301146F6B51246F60D73C0F68C
:105A60000001C0F60002C0F60003044600F0DEF9B3
:105A7000204600F047FF2046002100F04FFF20465F
:105A8000BDE81040AFF3008080B5016890F8382081
:105A9000097C406B5143C900FAF7FFFD80BD00004F
:105AA00010B5044600F09AF8204600F0DFF8002810
:105AB000FAD120460021BDE8104000F005B90000F1
:105AC00070B582B0002B00F07F8090F88CC0BCF1E4
:105AD000000F79D0DDF818C0022B09D3BCF1030FF9
